{
  "transactions": [
    {
      "hash": "0x70674ff27a9a7e3be012f0560e45ea1c83cbd67f5fa1963a9198879303e552e3",
      "transactionType": "CALL",
      "contractName": null,
      "contractAddress": "0x779877a7b0d9e8603169ddbd7836e478b4624789",
      "function": "transferAndCall(address,uint256,bytes)",
      "arguments": [
        "0x9DdfaCa8183c41ad55329BdeeD9F6A8d53168B1B",
        "3000000000000000000",
        "0x0299fd607cb62156e1ad37ae78eeea39cfc5de2d2a7eb69d12fcd8a11b12cb95"
      ],
      "transaction": {
        "from": "0x74b5a05c043636a967b5e2dd435b72c2bbcd10ca",
        "to": "0x779877a7b0d9e8603169ddbd7836e478b4624789",
        "gas": "0x14cbb",
        "value": "0x0",
        "input": "0x4000aea00000000000000000000000009ddfaca8183c41ad55329bdeed9f6a8d53168b1b00000000000000000000000000000000000000000000000029a2241af62c0000000000000000000000000000000000000000000000000000000000000000006000000000000000000000000000000000000000000000000000000000000000200299fd607cb62156e1ad37ae78eeea39cfc5de2d2a7eb69d12fcd8a11b12cb95",
        "nonce": "0x5",
        "chainId": "0xaa36a7"
      },
      "additionalContracts": [],
      "isFixedGasLimit": false
    }
  ],
  "receipts": [
    {
      "status": "0x1",
      "cumulativeGasUsed": "0x9c230b",
      "logs": [
        {
          "address": "0x779877a7b0d9e8603169ddbd7836e478b4624789",
          "topics": [
            "0xddf252ad1be2c89b69c2b068fc378daa952ba7f163c4a11628f55a4df523b3ef",
            "0x00000000000000000000000074b5a05c043636a967b5e2dd435b72c2bbcd10ca",
            "0x0000000000000000000000009ddfaca8183c41ad55329bdeed9f6a8d53168b1b"
          ],
          "data": "0x00000000000000000000000000000000000000000000000029a2241af62c0000",
          "blockHash": "0xa19f6e1cb48c80d3039ccd68f2f07c5be107248e64990a53b6597e26bb37d99a",
          "blockNumber": "0x6c8103",
          "transactionHash": "0x70674ff27a9a7e3be012f0560e45ea1c83cbd67f5fa1963a9198879303e552e3",
          "transactionIndex": "0x3d",
          "logIndex": "0x4c",
          "removed": false
        },
        {
          "address": "0x779877a7b0d9e8603169ddbd7836e478b4624789",
          "topics": [
            "0xe19260aff97b920c7df27010903aeb9c8d2be5d310a2c67824cf3f15396e4c16",
            "0x00000000000000000000000074b5a05c043636a967b5e2dd435b72c2bbcd10ca",
            "0x0000000000000000000000009ddfaca8183c41ad55329bdeed9f6a8d53168b1b"
          ],
          "data": "0x00000000000000000000000000000000000000000000000029a2241af62c0000000000000000000000000000000000000000000000000000000000000000004000000000000000000000000000000000000000000000000000000000000000200299fd607cb62156e1ad37ae78eeea39cfc5de2d2a7eb69d12fcd8a11b12cb95",
          "blockHash": "0xa19f6e1cb48c80d3039ccd68f2f07c5be107248e64990a53b6597e26bb37d99a",
          "blockNumber": "0x6c8103",
          "transactionHash": "0x70674ff27a9a7e3be012f0560e45ea1c83cbd67f5fa1963a9198879303e552e3",
          "transactionIndex": "0x3d",
          "logIndex": "0x4d",
          "removed": false
        },
        {
          "address": "0x9ddfaca8183c41ad55329bdeed9f6a8d53168b1b",
          "topics": [
            "0x1ced9348ff549fceab2ac57cd3a9de38edaaab274b725ee82c23e8fc8c4eec7a",
            "0x0299fd607cb62156e1ad37ae78eeea39cfc5de2d2a7eb69d12fcd8a11b12cb95"
          ],
          "data": "0x0000000000000000000000000000000000000000000000007ce66c50e2840000000000000000000000000000000000000000000000000000a688906bd8b00000",
          "blockHash": "0xa19f6e1cb48c80d3039ccd68f2f07c5be107248e64990a53b6597e26bb37d99a",
          "blockNumber": "0x6c8103",
          "transactionHash": "0x70674ff27a9a7e3be012f0560e45ea1c83cbd67f5fa1963a9198879303e552e3",
          "transactionIndex": "0x3d",
          "logIndex": "0x4e",
          "removed": false
        }
      ],
      "logsBloom": "0x01001006000000000000000000000000000000000021000000000000020000000000000000000000000000000000000000000000000000000000000000000000000000000000000002000008000000000000000000000000000020000020000008000000000000000000000000000000000000000000000000000010000040000000000000000000000000010000800000000020000000000000000000000000000000000000000000000000010000000000000000000000000004000000000000000002000000000000000000000000000000000000000100000000000000000010000000000000800000000000000000000000000002000000000000000000",
      "type": "0x2",
      "transactionHash": "0x70674ff27a9a7e3be012f0560e45ea1c83cbd67f5fa1963a9198879303e552e3",
      "transactionIndex": "0x3d",
      "blockHash": "0xa19f6e1cb48c80d3039ccd68f2f07c5be107248e64990a53b6597e26bb37d99a",
      "blockNumber": "0x6c8103",
      "gasUsed": "0xf0e5",
      "effectiveGasPrice": "0x6e6c5083",
      "from": "0x74b5a05c043636a967b5e2dd435b72c2bbcd10ca",
      "to": "0x779877a7b0d9e8603169ddbd7836e478b4624789",
      "contractAddress": null
    }
  ],
  "libraries": [],
  "pending": [],
  "returns": {},
  "timestamp": 1732043187,
  "chain": 11155111,
  "commit": "1e0d699"
}