{
  "transactions": [
    {
      "hash": "0xfbdcca668647eb893927984134f40da3b8173483ed8bd80b896f36e601e81dff",
      "transactionType": "CALL",
      "contractName": null,
      "contractAddress": "0x779877a7b0d9e8603169ddbd7836e478b4624789",
      "function": "transferAndCall(address,uint256,bytes)",
      "arguments": [
        "0x9DdfaCa8183c41ad55329BdeeD9F6A8d53168B1B",
        "3000000000000000000",
        "0x0299fd607cb62156e1ad37ae78eeea39cfc5de2d2a7eb69d12fcd8a11b12cb95"
      ],
      "transaction": {
        "from": "0x74b5a05c043636a967b5e2dd435b72c2bbcd10ca",
        "to": "0x779877a7b0d9e8603169ddbd7836e478b4624789",
        "gas": "0x14cbb",
        "value": "0x0",
        "input": "0x4000aea00000000000000000000000009ddfaca8183c41ad55329bdeed9f6a8d53168b1b00000000000000000000000000000000000000000000000029a2241af62c0000000000000000000000000000000000000000000000000000000000000000006000000000000000000000000000000000000000000000000000000000000000200299fd607cb62156e1ad37ae78eeea39cfc5de2d2a7eb69d12fcd8a11b12cb95",
        "nonce": "0x4",
        "chainId": "0xaa36a7"
      },
      "additionalContracts": [],
      "isFixedGasLimit": false
    }
  ],
  "receipts": [
    {
      "status": "0x1",
      "cumulativeGasUsed": "0x13995f3",
      "logs": [
        {
          "address": "0x779877a7b0d9e8603169ddbd7836e478b4624789",
          "topics": [
            "0xddf252ad1be2c89b69c2b068fc378daa952ba7f163c4a11628f55a4df523b3ef",
            "0x00000000000000000000000074b5a05c043636a967b5e2dd435b72c2bbcd10ca",
            "0x0000000000000000000000009ddfaca8183c41ad55329bdeed9f6a8d53168b1b"
          ],
          "data": "0x00000000000000000000000000000000000000000000000029a2241af62c0000",
          "blockHash": "0x023c49a9f02280a7abb4863b52160cdfb69b240c4a8d9a269a8b5bff51d86330",
          "blockNumber": "0x6c2aed",
          "transactionHash": "0xfbdcca668647eb893927984134f40da3b8173483ed8bd80b896f36e601e81dff",
          "transactionIndex": "0x76",
          "logIndex": "0x111",
          "removed": false
        },
        {
          "address": "0x779877a7b0d9e8603169ddbd7836e478b4624789",
          "topics": [
            "0xe19260aff97b920c7df27010903aeb9c8d2be5d310a2c67824cf3f15396e4c16",
            "0x00000000000000000000000074b5a05c043636a967b5e2dd435b72c2bbcd10ca",
            "0x0000000000000000000000009ddfaca8183c41ad55329bdeed9f6a8d53168b1b"
          ],
          "data": "0x00000000000000000000000000000000000000000000000029a2241af62c0000000000000000000000000000000000000000000000000000000000000000004000000000000000000000000000000000000000000000000000000000000000200299fd607cb62156e1ad37ae78eeea39cfc5de2d2a7eb69d12fcd8a11b12cb95",
          "blockHash": "0x023c49a9f02280a7abb4863b52160cdfb69b240c4a8d9a269a8b5bff51d86330",
          "blockNumber": "0x6c2aed",
          "transactionHash": "0xfbdcca668647eb893927984134f40da3b8173483ed8bd80b896f36e601e81dff",
          "transactionIndex": "0x76",
          "logIndex": "0x112",
          "removed": false
        },
        {
          "address": "0x9ddfaca8183c41ad55329bdeed9f6a8d53168b1b",
          "topics": [
            "0x1ced9348ff549fceab2ac57cd3a9de38edaaab274b725ee82c23e8fc8c4eec7a",
            "0x0299fd607cb62156e1ad37ae78eeea39cfc5de2d2a7eb69d12fcd8a11b12cb95"
          ],
          "data": "0x00000000000000000000000000000000000000000000000053444835ec5800000000000000000000000000000000000000000000000000007ce66c50e2840000",
          "blockHash": "0x023c49a9f02280a7abb4863b52160cdfb69b240c4a8d9a269a8b5bff51d86330",
          "blockNumber": "0x6c2aed",
          "transactionHash": "0xfbdcca668647eb893927984134f40da3b8173483ed8bd80b896f36e601e81dff",
          "transactionIndex": "0x76",
          "logIndex": "0x113",
          "removed": false
        }
      ],
      "logsBloom": "0x01001006000000000000000000000000000000000021000000000000020000000000000000000000000000000000000000000000000000000000000000000000000000000000000002000008000000000000000000000000000020000020000008000000000000000000000000000000000000000000000000000010000040000000000000000000000000010000800000000020000000000000000000000000000000000000000000000000010000000000000000000000000004000000000000000002000000000000000000000000000000000000000100000000000000000010000000000000800000000000000000000000000002000000000000000000",
      "type": "0x2",
      "transactionHash": "0xfbdcca668647eb893927984134f40da3b8173483ed8bd80b896f36e601e81dff",
      "transactionIndex": "0x76",
      "blockHash": "0x023c49a9f02280a7abb4863b52160cdfb69b240c4a8d9a269a8b5bff51d86330",
      "blockNumber": "0x6c2aed",
      "gasUsed": "0xf0e5",
      "effectiveGasPrice": "0x2c30ca90",
      "from": "0x74b5a05c043636a967b5e2dd435b72c2bbcd10ca",
      "to": "0x779877a7b0d9e8603169ddbd7836e478b4624789",
      "contractAddress": null
    }
  ],
  "libraries": [],
  "pending": [],
  "returns": {},
  "timestamp": 1731761573,
  "chain": 11155111,
  "commit": "1e0d699"
}